{
  "_format": "hh-sol-artifact-1",
  "contractName": "Bank",
  "sourceName": "contracts/BankAccount.sol",
  "abi": [
    {
      "inputs": [],
      "stateMutability": "nonpayable",
      "type": "constructor"
    },
    {
      "anonymous": false,
      "inputs": [
        {
          "indexed": false,
          "internalType": "address",
          "name": "_accountAddress",
          "type": "address"
        },
        {
          "indexed": false,
          "internalType": "string",
          "name": "name",
          "type": "string"
        },
        {
          "indexed": false,
          "internalType": "string",
          "name": "email",
          "type": "string"
        }
      ],
      "name": "accountCreated",
      "type": "event"
    },
    {
      "anonymous": false,
      "inputs": [
        {
          "indexed": false,
          "internalType": "address",
          "name": "depositor",
          "type": "address"
        },
        {
          "indexed": false,
          "internalType": "uint256",
          "name": "_amount",
          "type": "uint256"
        }
      ],
      "name": "depositEvent",
      "type": "event"
    },
    {
      "anonymous": false,
      "inputs": [
        {
          "indexed": false,
          "internalType": "address",
          "name": "withdrawer",
          "type": "address"
        },
        {
          "indexed": false,
          "internalType": "uint256",
          "name": "_withdraw",
          "type": "uint256"
        }
      ],
      "name": "withdrawEvent",
      "type": "event"
    },
    {
      "inputs": [
        {
          "internalType": "address",
          "name": "",
          "type": "address"
        }
      ],
      "name": "accounts",
      "outputs": [
        {
          "internalType": "string",
          "name": "name",
          "type": "string"
        },
        {
          "internalType": "string",
          "name": "email",
          "type": "string"
        },
        {
          "internalType": "bool",
          "name": "isActive",
          "type": "bool"
        },
        {
          "internalType": "uint256",
          "name": "balance",
          "type": "uint256"
        }
      ],
      "stateMutability": "view",
      "type": "function"
    },
    {
      "inputs": [
        {
          "internalType": "string",
          "name": "_name",
          "type": "string"
        },
        {
          "internalType": "string",
          "name": "_email",
          "type": "string"
        }
      ],
      "name": "createbankAccount",
      "outputs": [],
      "stateMutability": "nonpayable",
      "type": "function"
    },
    {
      "inputs": [
        {
          "internalType": "string",
          "name": "",
          "type": "string"
        }
      ],
      "name": "createdAccounts",
      "outputs": [
        {
          "internalType": "bool",
          "name": "",
          "type": "bool"
        }
      ],
      "stateMutability": "view",
      "type": "function"
    },
    {
      "inputs": [],
      "name": "deposit",
      "outputs": [
        {
          "internalType": "uint256",
          "name": "",
          "type": "uint256"
        }
      ],
      "stateMutability": "payable",
      "type": "function"
    },
    {
      "inputs": [],
      "name": "getAccountDetails",
      "outputs": [
        {
          "internalType": "string",
          "name": "",
          "type": "string"
        },
        {
          "internalType": "string",
          "name": "",
          "type": "string"
        },
        {
          "internalType": "bool",
          "name": "",
          "type": "bool"
        },
        {
          "internalType": "uint256",
          "name": "",
          "type": "uint256"
        }
      ],
      "stateMutability": "view",
      "type": "function"
    },
    {
      "inputs": [],
      "name": "getBalance",
      "outputs": [
        {
          "internalType": "uint256",
          "name": "",
          "type": "uint256"
        }
      ],
      "stateMutability": "view",
      "type": "function"
    },
    {
      "inputs": [],
      "name": "owner",
      "outputs": [
        {
          "internalType": "address",
          "name": "",
          "type": "address"
        }
      ],
      "stateMutability": "view",
      "type": "function"
    },
    {
      "inputs": [
        {
          "internalType": "uint256",
          "name": "_amount",
          "type": "uint256"
        }
      ],
      "name": "withdraw",
      "outputs": [
        {
          "internalType": "uint256",
          "name": "remainingBalance",
          "type": "uint256"
        }
      ],
      "stateMutability": "nonpayable",
      "type": "function"
    }
  ],
  "bytecode": "0x608060405234801561001057600080fd5b50336000806101000a81548173ffffffffffffffffffffffffffffffffffffffff021916908373ffffffffffffffffffffffffffffffffffffffff160217905550611467806100606000396000f3fe6080604052600436106100795760003560e01c8063711d4c871161004e578063711d4c87146101635780638da5cb5b1461018c578063c39869c1146101b7578063d0e30db0146101e557610079565b8061e5fb1461007e57806312065fe0146100bb5780632e1a7d4d146100e65780635e5c06e214610123575b600080fd5b34801561008a57600080fd5b506100a560048036038101906100a09190610bac565b610203565b6040516100b29190610c10565b60405180910390f35b3480156100c757600080fd5b506100d0610239565b6040516100dd9190610c44565b60405180910390f35b3480156100f257600080fd5b5061010d60048036038101906101089190610c8b565b610280565b60405161011a9190610c44565b60405180910390f35b34801561012f57600080fd5b5061014a60048036038101906101459190610d16565b6103da565b60405161015a9493929190610dc2565b60405180910390f35b34801561016f57600080fd5b5061018a60048036038101906101859190610e15565b610527565b005b34801561019857600080fd5b506101a16106cc565b6040516101ae9190610e9c565b60405180910390f35b3480156101c357600080fd5b506101cc6106f0565b6040516101dc9493929190610dc2565b60405180910390f35b6101ed6108b0565b6040516101fa9190610c44565b60405180910390f35b6002818051602081018201805184825260208301602085012081835280955050505050506000915054906101000a900460ff1681565b6000600360003373ffffffffffffffffffffffffffffffffffffffff1673ffffffffffffffffffffffffffffffffffffffff16815260200190815260200160002054905090565b6000600360003373ffffffffffffffffffffffffffffffffffffffff1673ffffffffffffffffffffffffffffffffffffffff16815260200190815260200160002054821115610304576040517f08c379a00000000000000000000000000000000000000000000000000000000081526004016102fb90610f03565b60405180910390fd5b81600360003373ffffffffffffffffffffffffffffffffffffffff1673ffffffffffffffffffffffffffffffffffffffff16815260200190815260200160002060008282546103539190610f52565b925050819055507f87d5f4772963d1f9b76047158b4ae97c420a1b3bff2a746c828beffd9e7c3e26338360405161038b929190610f86565b60405180910390a1600360003373ffffffffffffffffffffffffffffffffffffffff1673ffffffffffffffffffffffffffffffffffffffff168152602001908152602001600020549050919050565b60016020528060005260406000206000915090508060000180546103fd90610fde565b80601f016020809104026020016040519081016040528092919081815260200182805461042990610fde565b80156104765780601f1061044b57610100808354040283529160200191610476565b820191906000526020600020905b81548152906001019060200180831161045957829003601f168201915b50505050509080600101805461048b90610fde565b80601f01602080910402602001604051908101604052809291908181526020018280546104b790610fde565b80156105045780601f106104d957610100808354040283529160200191610504565b820191906000526020600020905b8154815290600101906020018083116104e757829003601f168201915b5050505050908060020160009054906101000a900460ff16908060030154905084565b6000151560028260405161053b919061104b565b908152602001604051809103902060009054906101000a900460ff16151514610599576040517f08c379a0000000000000000000000000000000000000000000000000000000008152600401610590906110ae565b60405180910390fd5b60016002826040516105ab919061104b565b908152602001604051809103902060006101000a81548160ff02191690831515021790555060405180608001604052808381526020018281526020016001151581526020016000815250600160003373ffffffffffffffffffffffffffffffffffffffff1673ffffffffffffffffffffffffffffffffffffffff1681526020019081526020016000206000820151816000019081610649919061127a565b50602082015181600101908161065f919061127a565b5060408201518160020160006101000a81548160ff021916908315150217905550606082015181600301559050507f10c088ff89ce3a6411a44d74d88461b8ab4bd881c9184eda0613954944818a953383836040516106c09392919061134c565b60405180910390a15050565b60008054906101000a900473ffffffffffffffffffffffffffffffffffffffff1681565b6060806000806000600160003373ffffffffffffffffffffffffffffffffffffffff1673ffffffffffffffffffffffffffffffffffffffff16815260200190815260200160002060405180608001604052908160008201805461075290610fde565b80601f016020809104026020016040519081016040528092919081815260200182805461077e90610fde565b80156107cb5780601f106107a0576101008083540402835291602001916107cb565b820191906000526020600020905b8154815290600101906020018083116107ae57829003601f168201915b505050505081526020016001820180546107e490610fde565b80601f016020809104026020016040519081016040528092919081815260200182805461081090610fde565b801561085d5780601f106108325761010080835404028352916020019161085d565b820191906000526020600020905b81548152906001019060200180831161084057829003601f168201915b505050505081526020016002820160009054906101000a900460ff161515151581526020016003820154815250509050806000015181602001518260400151836060015194509450945094505090919293565b6000600360003373ffffffffffffffffffffffffffffffffffffffff1673ffffffffffffffffffffffffffffffffffffffff1681526020019081526020016000205434600360003373ffffffffffffffffffffffffffffffffffffffff1673ffffffffffffffffffffffffffffffffffffffff1681526020019081526020016000205461093d9190611391565b101561097e576040517f08c379a000000000000000000000000000000000000000000000000000000000815260040161097590611411565b60405180910390fd5b34600360003373ffffffffffffffffffffffffffffffffffffffff1673ffffffffffffffffffffffffffffffffffffffff16815260200190815260200160002060008282546109cd9190611391565b925050819055507f47170ad76c9bbdb15dfbafd993321119023982de922af38d00684afaac15b8ea3334604051610a05929190610f86565b60405180910390a1600360003373ffffffffffffffffffffffffffffffffffffffff1673ffffffffffffffffffffffffffffffffffffffff16815260200190815260200160002054905090565b6000604051905090565b600080fd5b600080fd5b600080fd5b600080fd5b6000601f19601f8301169050919050565b7f4e487b7100000000000000000000000000000000000000000000000000000000600052604160045260246000fd5b610ab982610a70565b810181811067ffffffffffffffff82111715610ad857610ad7610a81565b5b80604052505050565b6000610aeb610a52565b9050610af78282610ab0565b919050565b600067ffffffffffffffff821115610b1757610b16610a81565b5b610b2082610a70565b9050602081019050919050565b82818337600083830152505050565b6000610b4f610b4a84610afc565b610ae1565b905082815260208101848484011115610b6b57610b6a610a6b565b5b610b76848285610b2d565b509392505050565b600082601f830112610b9357610b92610a66565b5b8135610ba3848260208601610b3c565b91505092915050565b600060208284031215610bc257610bc1610a5c565b5b600082013567ffffffffffffffff811115610be057610bdf610a61565b5b610bec84828501610b7e565b91505092915050565b60008115159050919050565b610c0a81610bf5565b82525050565b6000602082019050610c256000830184610c01565b92915050565b6000819050919050565b610c3e81610c2b565b82525050565b6000602082019050610c596000830184610c35565b92915050565b610c6881610c2b565b8114610c7357600080fd5b50565b600081359050610c8581610c5f565b92915050565b600060208284031215610ca157610ca0610a5c565b5b6000610caf84828501610c76565b91505092915050565b600073ffffffffffffffffffffffffffffffffffffffff82169050919050565b6000610ce382610cb8565b9050919050565b610cf381610cd8565b8114610cfe57600080fd5b50565b600081359050610d1081610cea565b92915050565b600060208284031215610d2c57610d2b610a5c565b5b6000610d3a84828501610d01565b91505092915050565b600081519050919050565b600082825260208201905092915050565b60005b83811015610d7d578082015181840152602081019050610d62565b60008484015250505050565b6000610d9482610d43565b610d9e8185610d4e565b9350610dae818560208601610d5f565b610db781610a70565b840191505092915050565b60006080820190508181036000830152610ddc8187610d89565b90508181036020830152610df08186610d89565b9050610dff6040830185610c01565b610e0c6060830184610c35565b95945050505050565b60008060408385031215610e2c57610e2b610a5c565b5b600083013567ffffffffffffffff811115610e4a57610e49610a61565b5b610e5685828601610b7e565b925050602083013567ffffffffffffffff811115610e7757610e76610a61565b5b610e8385828601610b7e565b9150509250929050565b610e9681610cd8565b82525050565b6000602082019050610eb16000830184610e8d565b92915050565b7f494e53554646494349454e542046554e44530000000000000000000000000000600082015250565b6000610eed601283610d4e565b9150610ef882610eb7565b602082019050919050565b60006020820190508181036000830152610f1c81610ee0565b9050919050565b7f4e487b7100000000000000000000000000000000000000000000000000000000600052601160045260246000fd5b6000610f5d82610c2b565b9150610f6883610c2b565b9250828203905081811115610f8057610f7f610f23565b5b92915050565b6000604082019050610f9b6000830185610e8d565b610fa86020830184610c35565b9392505050565b7f4e487b7100000000000000000000000000000000000000000000000000000000600052602260045260246000fd5b60006002820490506001821680610ff657607f821691505b60208210810361100957611008610faf565b5b50919050565b600081905092915050565b600061102582610d43565b61102f818561100f565b935061103f818560208601610d5f565b80840191505092915050565b6000611057828461101a565b915081905092915050565b7f4163636f756e7420616c72656164792065786973747300000000000000000000600082015250565b6000611098601683610d4e565b91506110a382611062565b602082019050919050565b600060208201905081810360008301526110c78161108b565b9050919050565b60008190508160005260206000209050919050565b60006020601f8301049050919050565b600082821b905092915050565b6000600883026111307fffffffffffffffffffffffffffffffffffffffffffffffffffffffffffffffff826110f3565b61113a86836110f3565b95508019841693508086168417925050509392505050565b6000819050919050565b600061117761117261116d84610c2b565b611152565b610c2b565b9050919050565b6000819050919050565b6111918361115c565b6111a561119d8261117e565b848454611100565b825550505050565b600090565b6111ba6111ad565b6111c5818484611188565b505050565b5b818110156111e9576111de6000826111b2565b6001810190506111cb565b5050565b601f82111561122e576111ff816110ce565b611208846110e3565b81016020851015611217578190505b61122b611223856110e3565b8301826111ca565b50505b505050565b600082821c905092915050565b600061125160001984600802611233565b1980831691505092915050565b600061126a8383611240565b9150826002028217905092915050565b61128382610d43565b67ffffffffffffffff81111561129c5761129b610a81565b5b6112a68254610fde565b6112b18282856111ed565b600060209050601f8311600181146112e457600084156112d2578287015190505b6112dc858261125e565b865550611344565b601f1984166112f2866110ce565b60005b8281101561131a578489015182556001820191506020850194506020810190506112f5565b868310156113375784890151611333601f891682611240565b8355505b6001600288020188555050505b505050505050565b60006060820190506113616000830186610e8d565b81810360208301526113738185610d89565b905081810360408301526113878184610d89565b9050949350505050565b600061139c82610c2b565b91506113a783610c2b565b92508282019050808211156113bf576113be610f23565b5b92915050565b7f4e6f206465706f736974206d6164650000000000000000000000000000000000600082015250565b60006113fb600f83610d4e565b9150611406826113c5565b602082019050919050565b6000602082019050818103600083015261142a816113ee565b905091905056fea2646970667358221220d9604de975b190fa82ffb54acb90091bb813c51a271e0c04171c95e39096bdb464736f6c63430008180033",
  "linkReferences": {},
  "deployedLinkReferences": {}
}