{
  "_format": "hh-sol-artifact-1",
  "contractName": "StudentRecords",
  "sourceName": "contracts/StudentRecords.sol",
  "abi": [
    {
      "inputs": [
        {
          "internalType": "string",
          "name": "_name",
          "type": "string"
        },
        {
          "internalType": "string",
          "name": "_email",
          "type": "string"
        },
        {
          "internalType": "string",
          "name": "_dob",
          "type": "string"
        },
        {
          "internalType": "string",
          "name": "_country",
          "type": "string"
        },
        {
          "internalType": "string",
          "name": "_lga",
          "type": "string"
        },
        {
          "internalType": "string",
          "name": "_state",
          "type": "string"
        }
      ],
      "name": "createStudent",
      "outputs": [],
      "stateMutability": "nonpayable",
      "type": "function"
    }
  ],
  "bytecode": "0x608060405234801561001057600080fd5b50610733806100206000396000f3fe608060405234801561001057600080fd5b506004361061002b5760003560e01c8063783648d714610030575b600080fd5b61004a600480360381019061004591906102d5565b61004c565b005b610054610145565b868160000181905250858160200181905250848160400181905250828160a00181905250838160800181905250818160600181905250600281908060018154018082558091505060019003906000526020600020906006020160009091909190915060008201518160000190816100cb919061062b565b5060208201518160010190816100e1919061062b565b5060408201518160020190816100f7919061062b565b50606082015181600301908161010d919061062b565b506080820151816004019081610123919061062b565b5060a0820151816005019081610139919061062b565b50505050505050505050565b6040518060c001604052806060815260200160608152602001606081526020016060815260200160608152602001606081525090565b6000604051905090565b600080fd5b600080fd5b600080fd5b600080fd5b6000601f19601f8301169050919050565b7f4e487b7100000000000000000000000000000000000000000000000000000000600052604160045260246000fd5b6101e282610199565b810181811067ffffffffffffffff82111715610201576102006101aa565b5b80604052505050565b600061021461017b565b905061022082826101d9565b919050565b600067ffffffffffffffff8211156102405761023f6101aa565b5b61024982610199565b9050602081019050919050565b82818337600083830152505050565b600061027861027384610225565b61020a565b90508281526020810184848401111561029457610293610194565b5b61029f848285610256565b509392505050565b600082601f8301126102bc576102bb61018f565b5b81356102cc848260208601610265565b91505092915050565b60008060008060008060c087890312156102f2576102f1610185565b5b600087013567ffffffffffffffff8111156103105761030f61018a565b5b61031c89828a016102a7565b965050602087013567ffffffffffffffff81111561033d5761033c61018a565b5b61034989828a016102a7565b955050604087013567ffffffffffffffff81111561036a5761036961018a565b5b61037689828a016102a7565b945050606087013567ffffffffffffffff8111156103975761039661018a565b5b6103a389828a016102a7565b935050608087013567ffffffffffffffff8111156103c4576103c361018a565b5b6103d089828a016102a7565b92505060a087013567ffffffffffffffff8111156103f1576103f061018a565b5b6103fd89828a016102a7565b9150509295509295509295565b600081519050919050565b7f4e487b7100000000000000000000000000000000000000000000000000000000600052602260045260246000fd5b6000600282049050600182168061045c57607f821691505b60208210810361046f5761046e610415565b5b50919050565b60008190508160005260206000209050919050565b60006020601f8301049050919050565b600082821b905092915050565b6000600883026104d77fffffffffffffffffffffffffffffffffffffffffffffffffffffffffffffffff8261049a565b6104e1868361049a565b95508019841693508086168417925050509392505050565b6000819050919050565b6000819050919050565b600061052861052361051e846104f9565b610503565b6104f9565b9050919050565b6000819050919050565b6105428361050d565b61055661054e8261052f565b8484546104a7565b825550505050565b600090565b61056b61055e565b610576818484610539565b505050565b5b8181101561059a5761058f600082610563565b60018101905061057c565b5050565b601f8211156105df576105b081610475565b6105b98461048a565b810160208510156105c8578190505b6105dc6105d48561048a565b83018261057b565b50505b505050565b600082821c905092915050565b6000610602600019846008026105e4565b1980831691505092915050565b600061061b83836105f1565b9150826002028217905092915050565b6106348261040a565b67ffffffffffffffff81111561064d5761064c6101aa565b5b6106578254610444565b61066282828561059e565b600060209050601f8311600181146106955760008415610683578287015190505b61068d858261060f565b8655506106f5565b601f1984166106a386610475565b60005b828110156106cb578489015182556001820191506020850194506020810190506106a6565b868310156106e857848901516106e4601f8916826105f1565b8355505b6001600288020188555050505b50505050505056fea2646970667358221220eda78051da897652fbaf0c32e99a37285b3af4413bc0acf679b3093fa83174b064736f6c63430008180033",
  "linkReferences": {},
  "deployedLinkReferences": {}
}